:100000000C942A000C9441000C943F000C943F0087
:100010000C943F000C943F000C943F000C943F0064
:100020000C943F000C943F000C943F000C943F0054
:100030000C943F000C943F000C943F000C943F0044
:100040000C943F000C943F000C943F000C943F0034
:100050000C943F0011241FBECFE5D8E0DEBFCDBF1A
:1000600010E0A0E6B0E0EEEDF0E002C005900D92E9
:10007000A236B107D9F70E9463000C946D000C946E
:1000800000001F920F920FB60F9211248F939F932F
:100090008091600090916100019739F485E08BBBFD
:1000A000109261001092600007C01BBA81E090E0DE
:1000B00090936100809360009F918F910F900FBE8D
:1000C0000F901F9018958FEF8ABB85B7816085BF11
:0E00D0008BB780648BBF7894FFCFF894FFCF7E
:0200DE0001001F
:00000001FF
