:100000000C942A000C9469000C943F000C948B0013
:100010000C943F000C943F000C943F000C943F0064
:100020000C943F000C943F000C943F000C943F0054
:100030000C943F000C943F000C943F000C943F0044
:100040000C943F000C943F000C943F000C943F0034
:100050000C943F0011241FBECFE5D8E0DEBFCDBF1A
:1000600010E0A0E6B0E0E6E7F1E002C005900D92F6
:10007000A436B107D9F70E94AD000C94B9000C94D6
:1000800000008130910571F08230910519F0892BC3
:1000900061F404C085B7816085BF07C085B7836000
:1000A00085BF03C085B7826085BF8BB780648BBF77
:1000B0000895009719F0019729F007C084B780646C
:1000C00084BF03C084B78F7B84BF8BB780628BBF34
:1000D00008951F920F920FB60F9211248F939F9342
:1000E0008091620090916300019739F485E08BBBA9
:1000F000109263001092620007C01BBA81E090E08A
:1001000090936300809362009F918F910F900FBE38
:100110000F901F9018951F920F920FB60F921124F7
:100120008F939F938091600090916100019739F4C3
:1001300087E08BBB109261001092600007C01BBA71
:1001400081E090E090936100809360009F918F9197
:100150000F900FBE0F901F9018958FEF8ABB82E013
:1001600090E00E94410080E090E00E945900789465
:06017000FFCFF894FFCF61
:040176000100010083
:00000001FF
